:0307C000DFFE2237
:10000E00AE07AF061EEF600C7FF51207C07FF5122C
:05001E0007C080EE2286
:1003C8007590F0E59064F070030204767F0A1200DD
:1003D8000EE59064F070030204767590FEE5906473
:1003E800FE601CE59054F0F53E240EF53EE590B411
:1003F800FEFB7F0A12000EE590B4FEFBAF3E2275AD
:1004080090FDE59064FD601CE59054F0F53E240DE8
:10041800F53EE590B4FDFB7F0A12000EE590B4FDB1
:10042800FBAF3E227590FBE59064FB601CE59054A1
:10043800F0F53E240BF53EE590B4FBFB7F0A120075
:100448000EE590B4FBFBAF3E227590F7E59064F79C
:10045800601CE59054F0F53E2407F53EE590B4F7AE
:10046800FB7F0A12000EE590B4F7FBAF3E227FFF38
:010478002261
:100578001203C8EF12065D05BC7705B97B05B67D89
:1005880005B37E05C8B705C5BB05C2BD05BFBE0519
:10059800D4D705D1DB05CEDD05CBDE05E0E705DDEB
:1005A800EB05DAED05D7EE000005E37F01227F02B7
:1005B800227F03227F04227F05227F06227F0722D3
:1005C8007F08227F09227F0A227F0B227F0C227F4D
:0E05D8000D227F0E227F0F227F10227FFF2236
:10073D0052454144590053544F50003F065B4F669C
:10074D006D7D077F6F777C395E7971FEFDFBF7EF6D
:03075D00DFBF7F7C
:05077A00C100010800B0
:10071200E4F580D2B7C2B7E5082F90075893F58069
:10072200D2B6C2B674092508F8E6F580D2B7C2B7C8
:0A0732000508E508B50503E4F50825
:01073C00229A
:0A07B600438901D2AFD2A9D28C22F0
:03000B000206B634
:1006B600C0E0C083C082C0D075D000C000C005C0F5
:1006C60007758CF8758A307D08E4FF120712C28F11
:0F06D600D007D005D000D0D0D082D083D0E03272
:0E078E00EF640A4E70037F4122EF2430FF22F9
:1006E50075093F750A73750B73750C3FAF48120694
:0706F500FC8E2D8F2EAF4992
:1006FC00BF41057E007F0A22EF3395E0FEEF24D048
:06070C00FFEE34FFFE22A7
:040683007F077E006F
:040687008E3B8F3CDB
:10068B001205788F3DE53DB4FF157409253CF8E65E
:10069B006480F61205788F3D7F1E12000E80E67483
:0A06AB0009253CF8E6547FF6AF3D48
:0106B5002222
:0B07AA00E4FF7E087809E4F608DEFC9E
:0107B5002221
:10050500E4F531F532AF3274092FF8E6FE74332F76
:10051500F8A6060532E532700205316408453170EA
:10052500E41207AAE51290074893F509E51493F537
:100535000AE51693F50BE51893F50CE51A93F50DF9
:10054500E51E93F5108005EF640D600512068380A6
:10055500F6E4F531F532AF3274332FF8E6FE74095F
:100565002FF8A6060532E5327002053164084531DB
:0205750070E430
:010577002261
:10002600752700752801E4F529F52AF52BF52CF539
:100036002DF52EF52F753001F51D751E03F51B7573
:100046001C0312079C1207B6D2ACE52864014527AB
:1000560070277F07FE800AE5266410600B7F077E07
:10006600001206878F2680EF7BFF7A07793D1207FD
:1000760060E4F527F5280203BFE52845276003025B
:1000860001FCE509643860181207AA750938750A73
:100096003F750B77750C5E750D80750E80750F803C
:1000A600E542640160030203BF1207AA74432540B8
:1000B600F8E4F6E543B4570F750978750A50750BE1
:1000C6003E750C790201ECE543B44C127509717565
:1000D6000A77750B38750C6D750D790201ECE543E1
:1000E60064477070AF481206FC8E1D8F1EAF491212
:1000F60006FC8E1B8F1C750979750A54750B5EAF4D
:10010600481206FC74482FF58274073EF583E49383
:10011600F50E750F40AF491206FC74482FF5827430
:10012600073EF583E493F510AF481206FCD3EF942F
:1001360000EE648094804010AF491206FCD3EF9421
:1001460000EE64809480500975270075280302012B
:10015600F20201ECE543B4540EE4F52DF52EF52F2D
:10016600753001F5278031E543644F70301206E59E
:100176008E2F8F30E52E90074893F50EE53093F5D8
:10018600108006E526641060071206838F2680F32A
:100196001207AAD200752700752802804FAF4312B6
:1001A60006FC8E118F12AF441206FC8E138F14AF0D
:1001B600451206FC8E158F16AF461206FC8E178F5B
:1001C60018AF471206FC8E198F1AE512900748934E
:1001D600F509E51493F50AE51693F50BE51893F57D
:1001E6000CE51A93F50D752700752801E4F542F51F
:1001F6003FF5400203BFE52864024527600302037A
:1002060094E5286402452760030203BFE509646F8D
:1002160060121207AA75096F750A3E750B79750C7F
:100226006D750D6D1205788F26E526C39401500372
:1002360002036AE526D3940A400302036AE52664AC
:1002460010603BE526C39401400FE526D3940A507F
:100256000875290085262A8008E526B40D031205AF
:1002660005E52A90074893F50E1205788F26E526B0
:10027600B4FFCA7F057E001206878F2680F0750FB1
:10028600401205788F26E526C394014007E526D35C
:100296009406400F1205788F26E526B40DE8120560
:1002A6000580E3E52664106034E526C39401400F1B
:1002B600E526D394065008752B0085262C8008E584
:1002C60026B40D03120505E52C90074893F510801A
:1002D60005E526B4FFCD1206838F2680F4AF2AAE3D
:1002E6002912078E8F21AF2CAE2B12078E8F22E498
:1002F600F523E52AB52E10E529B52D0BD3E52C956A
:1003060030E52B952F400BC3E52A952EE529952D33
:100316005047750979750A50750B50750C5C750D4B
:10032600508006E526641060071206838F2680F348
:100336001207AA1206E58E2F8F30E52E90074893F6
:10034600F50EE53093F5108009E52664107003027A
:1003560002071206838F2680F07B007A007921122D
:1003660007608013E526B410163000137BFF7A076A
:100376007943120760C200E4F527F528020207E573
:1003860026640D6003020207120505020207E5282E
:100396006403452770237F07FE8009E526B4FF0B1B
:1003A6007F077E001206878F2680F0752700752846
:1003B60001E526B4100B1207AA7F0A12000E0200EE
:0103C60050E6
:0103C7002213
:0E077F0002570014023F000001410001420039
:0E079C00759850438920758DFDD28ED2AF2204
:030023000205E6ED
:0B05E600C0E0C0D075D000C000C0070E
:1005F100309847C298AF99E5417027BF0D05754105
:1006010001803774432540F8A6070540E540700294
:10061100053FB55825E53FB55720753F00754000AA
:100621008018E541B40113EF640A6008753F007555
:0A063100400080037542017541008E
:09063B00D007D000D0D0D0E0328D
:080003008F993099FDC299228A
:10076000120644FF6013120003120644640A600973
:0A077000740129F9E43AFA80E72247
:030000000204797E
:0C047900787FE4F6D8FD7581580204C0BD
:10064400BB010689828A83E0225002E722BBFE02B4
:09065400E32289828A83E49322E7
:10065D00D083D082F8E4937012740193700DA3A32C
:10066D0093F8740193F5828883E473740293686040
:06067D00EFA3A3A380DF40
:10048500020026E493A3F8E493A34003F68001F267
:1004950008DFF48029E493A3F85407240CC8C33378
:1004A500C4540F4420C8834004F456800146F6DF47
:1004B500E4800B010204081020408090077AE47E56
:1004C500019360BCA3FF543F30E509541FFEE4933C
:1004D500A360010ECF54C025E060A840B8E493A303
:1004E500FAE493A3F8E493A3C8C582C8CAC583CA2E
:1004F500F0A3C8C582C8CAC583CADFE9DEE780BEE6
:01078D00006B
:00000001FF
