:0307B600DFFE2241
:10000E00AE07AF061EEF600C7FF51207B67FF51236
:05001E0007B680EE2290
:1003BE007590F0E59064F0700302046C7F0A1200F1
:1003CE000EE59064F0700302046C7590FEE5906487
:1003DE00FE601CE59054F0F53E240EF53EE590B41B
:1003EE00FEFB7F0A12000EE590B4FEFBAF3E2275B7
:1003FE0090FDE59064FD601CE59054F0F53E240DF3
:10040E00F53EE590B4FDFB7F0A12000EE590B4FDBB
:10041E00FBAF3E227590FBE59064FB601CE59054AB
:10042E00F0F53E240BF53EE590B4FBFB7F0A12007F
:10043E000EE590B4FBFBAF3E227590F7E59064F7A6
:10044E00601CE59054F0F53E2407F53EE590B4F7B8
:10045E00FB7F0A12000EE590B4F7FBAF3E227FFF42
:01046E00226B
:10056E001203BEEF12065305B27705AF7B05AC7DC5
:10057E0005A97E05BEB705BBBB05B8BD05B5BE0555
:10058E00CAD705C7DB05C4DD05C1DE05D6E705D331
:10059E00EB05D0ED05CDEE000005D97F01227F02DF
:1005AE00227F03227F04227F05227F06227F0722DD
:1005BE007F08227F09227F0A227F0B227F0C227F57
:0E05CE000D227F0E227F0F227F10227FFF2240
:1007330052454144590053544F50003F065B4F66A6
:100743006D7D077F6F777C395E7971FEFDFBF7EF77
:03075300DFBF7F86
:05077000C100010800BA
:10070800E4F580D2B7C2B7E5082F90074E93F5807D
:10071800D2B6C2B674092508F8E6F580D2B7C2B7D2
:0A0728000508E508B50503E4F5082F
:0107320022A4
:0A07AC00438901D2AFD2A9D28C22FA
:03000B000206AC3E
:1006AC00C0E0C083C082C0D075D000C000C005C0FF
:1006BC0007758CF8758A307D08E4FF120708C28F25
:0F06CC00D007D005D000D0D0D082D083D0E0327C
:0E078400EF640A4E70037F4122EF2430FF2203
:1006DB0075093F750A73750B73750C3FAF4812069E
:0706EB00F28E2D8F2EAF49A6
:1006F200BF41057E007F0A22EF3395E0FEEF24D052
:06070200FFEE34FFFE22B1
:040679007F077E0079
:04067D008E3B8F3CE5
:1006810012056E8F3DE53DB4FF157409253CF8E672
:100691006480F612056E8F3D7F1E12000E80E67497
:0A06A10009253CF8E6547FF6AF3D52
:0106AB00222C
:0B07A000E4FF7E087809E4F608DEFCA8
:0107AB00222B
:1004FB00E4F531F532AF3274092FF8E6FE74332F81
:10050B00F8A6060532E532700205316408453170F4
:10051B00E41207A0E51290073E93F509E51493F555
:10052B000AE51693F50BE51893F50CE51A93F50D03
:10053B00E51E93F5108005EF640D600512067980BA
:10054B00F6E4F531F532AF3274332FF8E6FE740969
:10055B002FF8A6060532E5327002053164084531E5
:02056B0070E43A
:01056D00226B
:10002600752700752801E4F529F52AF52BF52CF539
:100036002DF52EF52F7530011207921207ACD2ACB2
:10004600E5286401452770277F07FE800AE52664B8
:1000560010600B7F077E0012067D8F2680EF7BFFE8
:100066007A077933120756E4F527F5280203B5E532
:1000760028452760030201F2E50964386018120773
:10008600A0750938750A3F750B77750C5E750D807E
:10009600750E80750F80E542640160030203B51298
:1000A60007A074432540F8E4F6E543B4570F7509F5
:1000B60078750A50750B3E750C790201E2E543B47A
:1000C6004C12750971750A77750B38750C6D750DBF
:1000D600790201E2E54364477070AF481206F28E7A
:1000E6001D8F1EAF491206F28E1B8F1C750979757E
:1000F6000A54750B5EAF481206F2743E2FF58274F1
:10010600073EF583E493F50E750F40AF491206F2EC
:10011600743E2FF58274073EF583E493F510AF48DD
:100126001206F2D3EF9400EE648094804010AF493B
:100136001206F2D3EF9400EE64809480500975277E
:10014600007528030201E80201E2E543B4540EE417
:10015600F52DF52EF52F753001F5278031E5436431
:100166004F70301206DB8E2F8F30E52E90073E93B0
:10017600F50EE53093F5108006E52664106007124B
:1001860006798F2680F31207A0D2007527007528FE
:1001960002804FAF431206F28E118F12AF44120641
:1001A600F28E138F14AF451206F28E158F16AF46D8
:1001B6001206F28E178F18AF471206F28E198F1A93
:1001C600E51290073E93F509E51493F50AE51693B3
:1001D600F50BE51893F50CE51A93F50D75270075E3
:1001E6002801E4F542F53FF5400203B5E52864022F
:1001F6004527600302038AE5286402452760030257
:1002060003B5E509646F60121207A075096F750AD8
:100216003E750B79750C6D750D6D12056E8F26E5A5
:1002260026C394015003020360E526D3940A4003D3
:10023600020360E5266410603BE526C39401400F87
:10024600E526D3940A500875290085262A8008E5F4
:1002560026B40D031204FBE52A90073E93F50E1211
:10026600056E8F26E526B4FFCA7F057E0012067D41
:100276008F2680F0750F4012056E8F26E526C394F3
:10028600014007E526D39406400F12056E8F26E53A
:1002960026B40DE81204FB80E3E52664106034E51D
:1002A60026C39401400FE526D394065008752B000B
:1002B60085262C8008E526B40D031204FBE52C9058
:1002C600073E93F5108005E526B4FFCD1206798F1B
:1002D6002680F4AF2AAE291207848F21AF2CAE2BCD
:1002E6001207848F22E4F523E52AB52E10E529B5F9
:1002F6002D0BD3E52C9530E52B952F400BC3E52A26
:10030600952EE529952D5047750979750A50750B77
:1003160050750C5C750D508006E52664106007125A
:1003260006798F2680F31207A01206DB8E2F8F30F8
:10033600E52E90073E93F50EE53093F5108009E51E
:1003460026641070030201FD1206798F2680F07B69
:10035600007A0079211207568013E526B41016306C
:1003660000137BFF7A077939120756C200E4F52796
:10037600F5280201FDE526640D60030201FD120465
:10038600FB0201FDE5286403452770237F07FE80F5
:1003960009E526B4FF0B7F077E0012067D8F2680B7
:1003A600F0752700752801E526B4100B1207A07F0B
:0703B6000A12000E020046CE
:0103BD00221D
:0E07750002570014023F000001410001420043
:0E079200759850438920758DFDD28ED2AF220E
:030023000205DCF7
:0B05DC00C0E0C0D075D000C000C00718
:1005E700309847C298AF99E5417027BF0D0575410F
:1005F70001803774432540F8A6070540E54070029F
:10060700053FB55825E53FB55720753F00754000B4
:100617008018E541B40113EF640A6008753F00755F
:0A0627004000800375420175410098
:09063100D007D000D0D0D0E03297
:080003008F993099FDC299228A
:1007560012063AFF601312000312063A640A600991
:0A076600740129F9E43AFA80E72251
:0300000002046F88
:0C046F00787FE4F6D8FD7581580204B6D1
:10063A00BB010689828A83E0225002E722BBFE02BE
:09064A00E32289828A83E49322F1
:10065300D083D082F8E4937012740193700DA3A336
:1006630093F8740193F5828883E47374029368604A
:06067300EFA3A3A380DF4A
:10047B00020026E493A3F8E493A34003F68001F271
:10048B0008DFF48029E493A3F85407240CC8C33382
:10049B00C4540F4420C8834004F456800146F6DF51
:1004AB00E4800B0102040810204080900770E47E6A
:1004BB00019360BCA3FF543F30E509541FFEE49346
:1004CB00A360010ECF54C025E060A840B8E493A30D
:1004DB00FAE493A3F8E493A3C8C582C8CAC583CA38
:1004EB00F0A3C8C582C8CAC583CADFE9DEE780BEF0
:010783000075
:00000001FF
