:03078F00DFFE2268
:10000E00AE07AF061EEF600C7FF512078F7FF5125D
:05001E00078F80EE22B7
:1003A1007590F0E59064F0700302044F7F0A12002B
:1003B1000EE59064F0700302044F7590FEE59064C1
:1003C100FE601CE59054F0F53E240EF53EE590B438
:1003D100FEFB7F0A12000EE590B4FEFBAF3E2275D4
:1003E10090FDE59064FD601CE59054F0F53E240D10
:1003F100F53EE590B4FDFB7F0A12000EE590B4FDD9
:10040100FBAF3E227590FBE59064FB601CE59054C8
:10041100F0F53E240BF53EE590B4FBFB7F0A12009C
:100421000EE590B4FBFBAF3E227590F7E59064F7C3
:10043100601CE59054F0F53E2407F53EE590B4F7D5
:10044100FB7F0A12000EE590B4F7FBAF3E227FFF5F
:010451002288
:1004DE001203A1EF12062C052277051F7B051C7D4A
:1004EE0005197E052EB7052BBB0528BD0525BE05B6
:1004FE003AD70537DB0534DD0531DE0546E7054322
:10050E00EB0540ED053DEE000005497F00227F0121
:10051E00227F02227F03227F04227F05227F062272
:10052E007F07227F08227F09227F0A227F0B227FEC
:0E053E000C227F0D227F0E227F0F227FFF22D4
:10070C0053544F50005245414459003F065B4F66CD
:10071C006D7D077F6F777C395E7971FEFDFBF7EF9E
:03072C00DFBF7FAD
:05074900C100010800E1
:0A078500438901D2AFD2A9D28C2221
:1006E100E4F580D2B7C2B7E5082F90072793F580CC
:1006F100D2B6C2B674092508F8E6F580D2B7C2B7FA
:0A0701000508E508B50503E4F50856
:01070B0022CB
:03000B0002068565
:10068500C0E0C083C082C0D075D000C000C005C026
:1006950007758CF8758A307D08E4FF1206E1C28F74
:0F06A500D007D005D000D0D0D082D083D0E032A3
:0E075D00EF640A4E70037F4122EF2430FF222A
:1006B40075093F750A73750B73750C3FAF481206C5
:0706C400CB8E2D8F2EAF49F4
:1006CB00BF41057E007F0A22EF3395E0FEEF24D079
:0606DB00FFEE34FFFE22D9
:040652007F077E00A0
:040656008E3B8F3C0C
:10065A001204DE8F3DE53DB4FF157409253CF8E62A
:10066A006480F61204DE8F3D7F1E12000E80E6744F
:0A067A0009253CF8E6547FF6AF3D79
:010684002253
:0B077900E4FF7E087809E4F608DEFCCF
:010784002252
:10054C00E4F531F532AF3274092FF8E6FE74332F2F
:10055C00F8A6060532E532700205316408453170A3
:10056C00E4120779E51290071793F509E51493F552
:10057C000AE51693F50BE51893F50C8005EF640C62
:10058C00600512065280F6E4F531F532AF32743361
:10059C002FF8E6FE74092FF8A6060532E532700234
:0805AC0005316408453170E4DB
:0105B4002224
:10002600752700752801E4F529F52AF52BF52CF539
:100036002DF52EF52F75300112076B120785D2AC00
:10004600E528452760030201ADE50964386018120A
:100056000779750938750A3F750B77750C5E750D4E
:1000660080750E80750F80E542B401D4120779744D
:10007600432540F8E4F6E543B4570F750978750A49
:1000860050750B3E750C7902019DE543B44C127513
:100096000971750A77750B38750C6E750D79020145
:1000A6009DE5436447705E750979750A54750B5E64
:1000B600AF481206CB74172FF58274073EF583E41A
:1000C60093F50E750F40AF491206CB74172FF582C4
:1000D60074073EF583E493F510AF481206CBD3EFD1
:1000E6009400EE648094804010AF491206CBD3EFA3
:1000F6009400EE64809480500975270075280302E9
:1001060001A302019DE543B4540EE4F52DF52EF549
:100116002F753001F5278031E543644F70301206A4
:10012600B48E2F8F30E52E90071793F50EE530939A
:10013600F5108006E526640F60071206528F2680AA
:10014600F3120779D200752700752802804FAF4356
:100156001206CB8E118F12AF441206CB8E138F145C
:10016600AF451206CB8E158F16AF461206CB8E17ED
:100176008F18AF471206CB8E198F1AE51290071704
:1001860093F509E51493F50AE51693F50BE518932F
:10019600F50CE51A93F50D752700752801E4F5426F
:1001A600F53FF540020046E5286402452760030254
:1001B6000338E528640245276003020046E5096422
:1001C6006F601212077975096F750A3E750B79759E
:1001D6000C6D750D6D1204DE8F26E526C394015055
:1001E6000302030EE526D3940A400302030EE52616
:1001F600640F603BE526C39401400FE526D3940ABD
:10020600500875290085262A8008E526B40C0312B5
:10021600054CE52A90071793F50E1204DE8F26E5A6
:1002260026B4FFCA7F057E001206568F2680F0751B
:100236000F401204DE8F26E526C394014007E5260B
:10024600D39406400F1204DE8F26E526B40CE8127E
:10025600054C80E3E526640F6034E526C39401402F
:100266000FE526D394065008752B0085262C8008AA
:10027600E526B40C0312054CE52C90071793F510F0
:100286008005E526B4FFCD1206528F2680F4AF2AEC
:10029600AE2912075D8F21AF2CAE2B12075D8F2280
:1002A600E4F523E52C65307004E52B652F704E755B
:1002B6000979750A50750B50750C5C750D507F07E2
:1002C600FE800AE526640F600B7F077E0012065645
:1002D6008F2680EF1207791206B48E2F8F30E52E07
:1002E60090071793F50EE53093F5108009E526641F
:1002F6000F70030201B81206528F2680F07B007A37
:1003060000792112072F8013E526B40F163000134B
:100316007BFF7A07790C12072FC200E4F527F52830
:100326000201B8E526640C60030201B812054C020E
:1003360001B8E5286401452770277F07FE800AE596
:1003460026640F600B7F077E001206568F2680EF0D
:100356007BFF7A07791112072FE4F527F5280200AB
:1003660046E5286403452760030200467F07FE80B2
:1003760010E526640F6011E526640E600B7F077E8C
:10038600001206568F2680E9E526640E600C1207D9
:0A0396007975270075280102004662
:0103A000223A
:0E074E0002570014023F00000141000142006A
:0E076B00759850438920758DFDD28ED2AF2235
:080003008F993099FDC299228A
:10072F00120613FF6013120003120613640A600906
:0A073F00740129F9E43AFA80E72278
:030023000205B51E
:0B05B500C0E0C0D075D000C000C0073F
:1005C000309847C298AF99E5417027BF0D05754136
:1005D00001803774432540F8A6070540E5407002C6
:1005E000053FB55825E53FB55720753F00754000DC
:1005F0008018E541B40113EF640A6008753F007587
:0A06000040008003754201754100BF
:09060A00D007D000D0D0D0E032BE
:03000000020452A5
:0C045200787FE4F6D8FD7581580204990B
:10061300BB010689828A83E0225002E722BBFE02E5
:09062300E32289828A83E4932218
:10062C00D083D082F8E4937012740193700DA3A35D
:10063C0093F8740193F5828883E473740293686071
:06064C00EFA3A3A380DF71
:10045E00020026E493A3F8E493A34003F68001F28E
:10046E0008DFF48029E493A3F85407240CC8C3339F
:10047E00C4540F4420C8834004F456800146F6DF6E
:10048E00E4800B0102040810204080900749E47EAE
:10049E00019360BCA3FF543F30E509541FFEE49363
:1004AE00A360010ECF54C025E060A840B8E493A32A
:1004BE00FAE493A3F8E493A3C8C582C8CAC583CA55
:1004CE00F0A3C8C582C8CAC583CADFE9DEE780BE0D
:01075C00009C
:00000001FF
