:03079C00DFFE225B
:10000E00AE07AF061EEF600C7FF512079C7FF51250
:05001E00079C80EE22AA
:1003AE007590F0E59064F0700302045C7F0A120011
:1003BE000EE59064F0700302045C7590FEE59064A7
:1003CE00FE601CE59054F0F53E240EF53EE590B42B
:1003DE00FEFB7F0A12000EE590B4FEFBAF3E2275C7
:1003EE0090FDE59064FD601CE59054F0F53E240D03
:1003FE00F53EE590B4FDFB7F0A12000EE590B4FDCC
:10040E00FBAF3E227590FBE59064FB601CE59054BB
:10041E00F0F53E240BF53EE590B4FBFB7F0A12008F
:10042E000EE590B4FBFBAF3E227590F7E59064F7B6
:10043E00601CE59054F0F53E2407F53EE590B4F7C8
:10044E00FB7F0A12000EE590B4F7FBAF3E227FFF52
:01045E00227B
:1004EB001203AEEF120639052F77052C7B05297DFC
:1004FB0005267E053BB70538BB0535BD0532BE0568
:10050B0047D70544DB0541DD053EDE0553E70550C6
:10051B00EB054DED054AEE000005567F00227F01ED
:10052B00227F02227F03227F04227F05227F062265
:10053B007F07227F08227F09227F0A227F0B227FDF
:0E054B000C227F0D227F0E227F0F227FFF22C7
:1007190053544F50005245414459003F065B4F66C0
:100729006D7D077F6F777C395E7971FEFDFBF7EF91
:03073900DFBF7FA0
:05075600C100010800D4
:0A079200438901D2AFD2A9D28C2214
:1006EE00E4F580D2B7C2B7E5082F90073493F580B2
:1006FE00D2B6C2B674092508F8E6F580D2B7C2B7ED
:0A070E000508E508B50503E4F50849
:0107180022BE
:03000B0002069258
:10069200C0E0C083C082C0D075D000C000C005C019
:1006A20007758CF8758A307D08E4FF1206EEC28F5A
:0F06B200D007D005D000D0D0D082D083D0E03296
:0E076A00EF640A4E70037F4122EF2430FF221D
:1006C10075093F750A73750B73750C3FAF481206B8
:0706D100D88E2D8F2EAF49DA
:1006D800BF41057E007F0A22EF3395E0FEEF24D06C
:0606E800FFEE34FFFE22CC
:04065F007F077E0093
:040663008E3B8F3CFF
:100667001204EB8F3DE53DB4FF157409253CF8E610
:100677006480F61204EB8F3D7F1E12000E80E67435
:0A06870009253CF8E6547FF6AF3D6C
:010691002246
:0B078600E4FF7E087809E4F608DEFCC2
:010791002245
:10055900E4F531F532AF3274092FF8E6FE74332F22
:10056900F8A6060532E53270020531640845317096
:10057900E4120786E51290072493F509E51493F52B
:100589000AE51693F50BE51893F50C8005EF640C55
:10059900600512065F80F6E4F531F532AF32743347
:1005A9002FF8E6FE74092FF8A6060532E532700227
:0805B90005316408453170E4CE
:0105C1002217
:10002600752700752801E4F529F52AF52BF52CF539
:100036002DF52EF52F753001120778120792D2ACE6
:10004600E528452760030201ADE50964386018120A
:100056000786750938750A3F750B77750C5E750D41
:1000660080750E80750F80E542B401D41207867440
:10007600432540F8E4F6E543B4570F750978750A49
:1000860050750B3E750C7902019DE543B44C127513
:100096000971750A77750B38750C6D750D79020146
:1000A6009DE5436447705E750979750A54750B5E64
:1000B600AF481206D874242FF58274073EF583E400
:1000C60093F50E750F40AF491206D874242FF582AA
:1000D60074073EF583E493F510AF481206D8D3EFC4
:1000E6009400EE648094804010AF491206D8D3EF96
:1000F6009400EE64809480500975270075280302E9
:1001060001A302019DE543B4540EE4F52DF52EF549
:100116002F753001F5278031E543644F70301206A4
:10012600C18E2F8F30E52E90072493F50EE5309380
:10013600F5108006E526640F600712065F8F26809D
:10014600F3120786D200752700752802804FAF4349
:100156001206D88E118F12AF441206D88E138F1442
:10016600AF451206D88E158F16AF461206D88E17D3
:100176008F18AF471206D88E198F1AE512900724EA
:1001860093F509E51493F50AE51693F50BE518932F
:10019600F50CE51A93F50D752700752801E4F5426F
:1001A600F53FF540020046E5286402452760030254
:1001B6000345E528640245276003020046E5096415
:1001C6006F601212078675096F750A3E750B797591
:1001D6000C6D750D6D1204EB8F26E526C394015048
:1001E6000302031BE526D3940A400302031BE526FC
:1001F600640F603BE526C39401400FE526D3940ABD
:10020600500875290085262A8008E526B40C0312B5
:100216000559E52A90072493F50E1204EB8F26E57F
:1002260026B4FFCA7F057E001206638F2680F0750E
:100236000F401204EB8F26E526C394014007E526FE
:10024600D39406400F1204EB8F26E526B40CE81271
:10025600055980E3E526640F6034E526C394014022
:100266000FE526D394065008752B0085262C8008AA
:10027600E526B40C03120559E52C90072493F510D6
:100286008005E526B4FFCD12065F8F2680F4AF2ADF
:10029600AE2912076A8F21AF2CAE2B12076A8F2266
:1002A600E4F523E52AB52E10E529B52D0BD3E52C6B
:1002B6009530E52B952F400BC3E52A952EE529951C
:1002C6002D5047750979750A50750B50750C5C757C
:1002D6000D508006E526640F600712065F8F2680A4
:1002E600F31207861206C18E2F8F30E52E90072453
:1002F60093F50EE53093F5108009E526640F70033B
:100306000201B812065F8F2680F07B007A00792101
:1003160012073C8013E526B40F163000137BFF7AD4
:1003260007791912073CC200E4F527F5280201B83F
:10033600E526640C60030201B81205590201B8E50E
:10034600286401452770277F07FE800AE526640F8B
:10035600600B7F077E001206638F2680EF7BFF7A95
:1003660007791E12073CE4F527F528020046E52822
:100376006403452760030200467F07FE8010E526DA
:10038600640F6011E526640E600B7F077E0012067F
:10039600638F2680E9E526640E600C1207867527B2
:0703A600007528010200466A
:0103AD00222D
:0E075B0002570014023F00000141000142005D
:0E077800759850438920758DFDD28ED2AF2228
:080003008F993099FDC299228A
:10073C00120620FF6013120003120620640A6009DF
:0A074C00740129F9E43AFA80E7226B
:030023000205C211
:0B05C200C0E0C0D075D000C000C00732
:1005CD00309847C298AF99E5417027BF0D05754129
:1005DD0001803774432540F8A6070540E5407002B9
:1005ED00053FB55825E53FB55720753F00754000CF
:1005FD008018E541B40113EF640A6008753F00757A
:0A060D0040008003754201754100B2
:09061700D007D000D0D0D0E032B1
:0300000002045F98
:0C045F00787FE4F6D8FD7581580204A6F1
:10062000BB010689828A83E0225002E722BBFE02D8
:09063000E32289828A83E493220B
:10063900D083D082F8E4937012740193700DA3A350
:1006490093F8740193F5828883E473740293686064
:06065900EFA3A3A380DF64
:10046B00020026E493A3F8E493A34003F68001F281
:10047B0008DFF48029E493A3F85407240CC8C33392
:10048B00C4540F4420C8834004F456800146F6DF61
:10049B00E4800B0102040810204080900756E47E94
:1004AB00019360BCA3FF543F30E509541FFEE49356
:1004BB00A360010ECF54C025E060A840B8E493A31D
:1004CB00FAE493A3F8E493A3C8C582C8CAC583CA48
:1004DB00F0A3C8C582C8CAC583CADFE9DEE780BE00
:01076900008F
:00000001FF
