:0307B800DFFE223F
:10000E00AE07AF061EEF600C7FF51207B87FF51234
:05001E0007B880EE228E
:1003C0007590F0E59064F0700302046E7F0A1200ED
:1003D0000EE59064F0700302046E7590FEE5906483
:1003E000FE601CE59054F0F53E240EF53EE590B419
:1003F000FEFB7F0A12000EE590B4FEFBAF3E2275B5
:1004000090FDE59064FD601CE59054F0F53E240DF0
:10041000F53EE590B4FDFB7F0A12000EE590B4FDB9
:10042000FBAF3E227590FBE59064FB601CE59054A9
:10043000F0F53E240BF53EE590B4FBFB7F0A12007D
:100440000EE590B4FBFBAF3E227590F7E59064F7A4
:10045000601CE59054F0F53E2407F53EE590B4F7B6
:10046000FB7F0A12000EE590B4F7FBAF3E227FFF40
:010470002269
:100570001203C0EF12065505B47705B17B05AE7DB9
:1005800005AB7E05C0B705BDBB05BABD05B7BE0549
:10059000CCD705C9DB05C6DD05C3DE05D8E705D523
:1005A000EB05D2ED05CFEE000005DB7F00227F01D9
:1005B000227F02227F03227F04227F05227F0622E0
:1005C0007F07227F08227F09227F0A227F0B227F5A
:0E05D0000C227F0D227F0E227F0F227FFF2242
:1007350053544F50005245414459003F065B4F66A4
:100745006D7D077F6F777C395E7971FEFDFBF7EF75
:03075500DFBF7F84
:05077200C100010800B8
:10070A00E4F580D2B7C2B7E5082F90075093F58079
:10071A00D2B6C2B674092508F8E6F580D2B7C2B7D0
:0A072A000508E508B50503E4F5082D
:0107340022A2
:0A07AE00438901D2AFD2A9D28C22F8
:03000B000206AE3C
:1006AE00C0E0C083C082C0D075D000C000C005C0FD
:1006BE0007758CF8758A307D08E4FF12070AC28F21
:0F06CE00D007D005D000D0D0D082D083D0E0327A
:0E078600EF640A4E70037F4122EF2430FF2201
:1006DD0075093F750A73750B73750C3FAF4812069C
:0706ED00F48E2D8F2EAF49A2
:1006F400BF41057E007F0A22EF3395E0FEEF24D050
:06070400FFEE34FFFE22AF
:04067B007F077E0077
:04067F008E3B8F3CE3
:100683001205708F3DE53DB4FF157409253CF8E66E
:100693006480F61205708F3D7F1E12000E80E67493
:0A06A30009253CF8E6547FF6AF3D50
:0106AD00222A
:0B07A200E4FF7E087809E4F608DEFCA6
:0107AD002229
:1004FD00E4F531F532AF3274092FF8E6FE74332F7F
:10050D00F8A6060532E532700205316408453170F2
:10051D00E41207A2E51290074093F509E51493F54F
:10052D000AE51693F50BE51893F50CE51A93F50D01
:10053D00E51E93F5108005EF640C600512067B80B7
:10054D00F6E4F531F532AF3274332FF8E6FE740967
:10055D002FF8A6060532E5327002053164084531E3
:02056D0070E438
:01056F002269
:10002600752700752801E4F529F52AF52BF52CF539
:100036002DF52EF52F7530011207941207AED2ACAE
:10004600E528452760030201BFE5096438601812F8
:1000560007A2750938750A3F750B77750C5E750D25
:1000660080750E80750F80E542B401D41207A27424
:10007600432540F8E4F6E543B4570F750978750A49
:1000860050750B3E750C790201AFE543B44C127501
:100096000971750A77750B38750C6D750D79020146
:1000A600AFE54364477070AF481206F48E1D8F1E8D
:1000B600AF491206F48E1B8F1C750979750A5475A3
:1000C6000B5EAF481206F474402FF58274073EF5B6
:1000D60083E493F50E750F40AF491206F474402F72
:1000E600F58274073EF583E493F510AF481206F4E3
:1000F600D3EF9400EE648094804010AF491206F46A
:10010600D3EF9400EE64809480500975270075281B
:10011600030201B50201AFE543B4540EE4F52DF533
:100126002EF52F753001F5278031E543644F703089
:100136001206DD8E2F8F30E52E90074093F50EE5E3
:100146003093F5108006E526640F600712067B8F54
:100156002680F31207A2D200752700752802804F69
:10016600AF431206F48E118F12AF441206F48E13AB
:100176008F14AF451206F48E158F16AF461206F48D
:100186008E178F18AF471206F48E198F1AE5129044
:10019600074093F509E51493F50AE51693F50BE583
:1001A6001893F50CE51A93F50D752700752801E4EB
:1001B600F542F53FF540020046E528640245276012
:1001C60003020357E528640245276003020046E55B
:1001D60009646F60121207A275096F750A3E750BE6
:1001E60079750C6D750D6D1205708F26E526C39415
:1001F60001500302032DE526D3940A400302032D82
:10020600E526640F603BE526C39401400FE526D33F
:10021600940A500875290085262A8008E526B40C1C
:10022600031204FDE52A90074093F50E1205708F20
:1002360026E526B4FFCA7F057E0012067F8F26803C
:10024600F0750F401205708F26E526C3940140070E
:10025600E526D39406400F1205708F26E526B40CCA
:10026600E81204FD80E3E526640F6034E526C394B6
:1002760001400FE526D394065008752B0085262CE1
:100286008008E526B40C031204FDE52C9007409384
:10029600F5108005E526B4FFCD12067B8F2680F487
:1002A600AF2AAE291207868F21AF2CAE2B120786F6
:1002B6008F22E4F523E52AB52E10E529B52D0BD3BB
:1002C600E52C9530E52B952F400BC3E52A952EE5B9
:1002D60029952D5047750979750A50750B50750C7F
:1002E6005C750D508006E526640F600712067B8F4D
:1002F6002680F31207A21206DD8E2F8F30E52E9090
:10030600074093F50EE53093F5108009E526640F56
:1003160070030201CA12067B8F2680F07B007A00EA
:1003260079211207588013E526B40F163000137B87
:10033600FF7A077935120758C200E4F527F5280237
:1003460001CAE526640C60030201CA1204FD02011B
:10035600CAE5286401452770277F07FE800AE5263F
:10036600640F600B7F077E0012067F8F2680EF7B6F
:10037600FF7A07793A120758E4F527F5280200466E
:10038600E5286403452760030200467F07FE8010C8
:10039600E526640F6011E526640E600B7F077E007C
:1003A60012067F8F2680E9E526640E600C1207A2EE
:0903B600752700752801020046BC
:0103BF00221B
:0E07770002570014023F000001410001420041
:0E079400759850438920758DFDD28ED2AF220C
:080003008F993099FDC299228A
:1007580012063CFF601312000312063C640A60098B
:0A076800740129F9E43AFA80E7224F
:030023000205DEF5
:0B05DE00C0E0C0D075D000C000C00716
:1005E900309847C298AF99E5417027BF0D0575410D
:1005F90001803774432540F8A6070540E54070029D
:10060900053FB55825E53FB55720753F00754000B2
:100619008018E541B40113EF640A6008753F00755D
:0A0629004000800375420175410096
:09063300D007D000D0D0D0E03295
:0300000002047186
:0C047100787FE4F6D8FD7581580204B8CD
:10063C00BB010689828A83E0225002E722BBFE02BC
:09064C00E32289828A83E49322EF
:10065500D083D082F8E4937012740193700DA3A334
:1006650093F8740193F5828883E473740293686048
:06067500EFA3A3A380DF48
:10047D00020026E493A3F8E493A34003F68001F26F
:10048D0008DFF48029E493A3F85407240CC8C33380
:10049D00C4540F4420C8834004F456800146F6DF4F
:1004AD00E4800B0102040810204080900772E47E66
:1004BD00019360BCA3FF543F30E509541FFEE49344
:1004CD00A360010ECF54C025E060A840B8E493A30B
:1004DD00FAE493A3F8E493A3C8C582C8CAC583CA36
:1004ED00F0A3C8C582C8CAC583CADFE9DEE780BEEE
:010785000073
:00000001FF
